S00D0000636D6172742E7372656300
S113000045C0000060C000005EC000005CC000008D
S11300105AC0000058C0000056C0000054C0000080
S113002052C0000050C000004EC000004CC0000090
S11300304AC0000048C0000046C0000044C00000A0
S113004052C1000040C000003EC000003CC000009F
S11300503AC0000038C0000036C0000034C00000C0
S113006032C0000030C000002EC000002CC00000D0
S11300702AC0000028C0000026C0000024C00000E0
S113008022C0000020C000001EC0000011241FBEBA
S1130090CFEFD0E1DEBFCDBF11E0A0E0B1E0E6EFED
S11300A0FEE000E00BBF02C007900D92A83BB10731
S11300B0D9F721E0A8EBB1E001C01D92A23CB20740
S11300C0E1F76CD116C79CCF8FEF84BB85BB089535
S11300D0982F907F95BBAA9AAA9820E1829FC0018D
S11300E0112485BBAA9AAA988FE39FE10197F1F79F
S11300F000C000000895982F907F916095BBAA9A44
S1130100AA9820E1829FC0011124816085BBAA9A2C
S1130110AA988FE39FE10197F1F700C000000895CA
S1130120662319F0613021F008958058D1CF0895E5
S11301308054CECF08950F931F93CF93DF93042F52
S1130140152FEEDFC02FD12F8991D5DF8881811142
S1130150FBCFDF91CF911F910F910895B5DF2FEF62
S113016083EC99E0215080409040E1F700C000000A
S11301708FE599E00197F1F700C0000088E2A8DF5D
S11301809FEF23EC89E0915020408040E1F700C0CC
S1130190000088E29DDF9FEF23EC89E0915020402E
S11301A08040E1F700C000008CE092DF86E090DF41
S11301B082E08EDF81E08CDF81E08ACF089581E0E8
S11301C087DF8FE39CE90197F1F700C000000895F1
S11301D020E030E041E050E0CA01022E02C0880F66
S11301E0991F0A94E2F7809582BB8FE19EE4019700
S11301F0F1F700C0000080B38095807F11F080B3D8
S113020008952F5F3F4F2430310531F780E0089582
S11302101F93CF93DF938FEF8ABB8FE081BB81E085
S113022087BF87E083BF9ADFCADFC2E0D0E010EE69
S113023043E251E060E080E07EDF44E351E060E0CF
S113024080E079DF1BBA2FEF81EE94E021508040EB
S11302509040E1F700C00000B2DF1BBB2FEF81EE3E
S113026094E0215080409040E1F700C000002197C5
S1130270F9F67894DF91CF911F9108950F931F930E
S1130280CF93DF93CDB7DEB760970FB6F894DEBF98
S11302900FBECDBF5F934F937F936F939F938F93C5
S11302A085E491E09F938F938E010F5F1F4F1F93FF
S11302B00F9344D34AE551E060E080E03CDFA801BD
S11302C061E080E038DF0FB6F894DEBF0FBECDBF2B
S11302D060960FB6F894DEBF0FBECDBFDF91CF910D
S11302E01F910F9108951F920F920FB60F92112430
S11302F08F939F938091C0019091C1010196909337
S1130300C1018093C001CD9708F441C08091BA0126
S11303109091BB0101969093BB018093BA01CC9755
S113032068F08091BC019091BD0101969093BD014C
S11303308093BC011092BB011092BA018091BC0160
S11303409091BD01CC9768F08091BE019091BF015E
S113035001969093BF018093BE011092BD0110924B
S1130360BC018091BE019091BF01CC9760F01092C6
S1130370BB011092BA011092BD011092BC011092FF
S1130380BF011092BE011092C1011092C0019F9151
S11303908F910F900FBE0F901F901895CF93DF93FE
S11303A0CDB7DEB762970FB6F894DEBF0FBECDBFF0
S11303B02FDF00E010E0A12CB12CC12CD12CE12CBA
S11303C0F12C212C312C0F2EF0EA4F2EF1E05F2E70
S11303D0F02DCE0101963C01812CFADE982E8091FD
S11303E0B8019091B9010097B9F44091BA015091C4
S11303F0BB016091BC017091BD018091BE019091DF
S1130400BF013CDF9BE7991260C221E02093B80151
S11304108092B901D4DEE1CF8130910549F54BE6F4
S113042051E060E080E087DE4CE751E061E080E08D
S113043082DE8EEE981208C082E090E09093B901BB
S11304408093B801BCDE0AC09EED991207C083E018
S113045090E09093B9018093B801B1DE9FEF20E75B
S113046082E0915020408040E1F700C00000B5CF09
S11304708230910509F022C24DE851E060E080E04D
S11304805ADE0115110509F0FEC197EE99122EC02E
S11304902A2D3B2D4C2D5D2D6E2D7F2D822D932DE0
S11304A001E01ED2222E332E498B5A8BB62FA72F52
S11304B0F82FE92F02E014D2A22EB32EC42ED52E8B
S11304C0E62EF72E082F192F222D332D49895A890C
S11304D06B2F7A2F8F2F9E2F1CD2A22EB32EC42EB9
S11304E0D52EE62EF72E282E392EF7C12EEE921297
S11304F030C02A2D3B2D4C2D5D2D6E2D7F2D822D50
S1130500932D01E0EDD1322E398B4A8B252EB62F57
S1130510A72FF82FE92F02E0E3D1A22EB32EC42E89
S1130520D52EE62EF72E082F192F232D39894A8927
S1130530522D6B2F7A2F8F2F9E2FEBD1A1E0F2D16A
S1130540A22EB32EC42ED52EE62EF72E282E392E0B
S1130550C4C18EED981230C02A2D3B2D4C2D5D2D3B
S11305606E2D7F2D822D932D01E0BAD1322E398B41
S11305704A8B252EB62FA72FF82FE92F02E0B0D1F2
S1130580A22EB32EC42ED52EE62EF72E082F192F09
S1130590232D39894A89522D6B2F7A2F8F2F9E2F25
S11305A0B8D1A2E0BFD1A22EB32EC42ED52EE62EF2
S11305B0F72E282E392E91C19EEB991230C02A2D88
S11305C03B2D4C2D5D2D6E2D7F2D822D932D01E025
S11305D087D1322E398B4A8B252EB62FA72FF82F91
S11305E0E92F02E07DD1A22EB32EC42ED52EE62E05
S11305F0F72E082F192F232D39894A89522D6B2F55
S11306007A2F8F2F9E2F85D1A3E08CD1A22EB32ECB
S1130610C42ED52EE62EF72E282E392E5EC12DEEB1
S1130620921230C02A2D3B2D4C2D5D2D6E2D7F2D29
S1130630822D932D01E054D1322E398B4A8B252EF5
S1130640B62FA72FF82FE92F02E04AD1A22EB32EFE
S1130650C42ED52EE62EF72E082F192F232D3989D7
S11306604A89522D6B2F7A2F8F2F9E2F52D1A4E0BF
S113067059D1A22EB32EC42ED52EE62EF72E282E17
S1130680392E2BC18DED981230C02A2D3B2D4C2DC7
S11306905D2D6E2D7F2D822D932D01E021D1322EE3
S11306A0398B4A8B252EB62FA72FF82FE92F02E07E
S11306B017D1A22EB32EC42ED52EE62EF72E082F38
S11306C0192F232D39894A89522D6B2F7A2F8F2F79
S11306D09E2F1FD1A5E026D1A22EB32EC42ED52E37
S11306E0E62EF72E282E392EF8C09DEB991230C035
S11306F02A2D3B2D4C2D5D2D6E2D7F2D822D932D7E
S113070001E0EED0322E398B4A8B252EB62FA72F3F
S1130710F82FE92F02E0E4D0A22EB32EC42ED52E5A
S1130720E62EF72E082F192F232D39894A89522DA9
S11307306B2F7A2F8F2F9E2FECD0A6E0F3D0A22E12
S1130740B32EC42ED52EE62EF72E282E392EC5C054
S11307502BEE921230C02A2D3B2D4C2D5D2D6E2D8B
S11307607F2D822D932D01E0BBD0322E398B4A8B05
S1130770252EB62FA72FF82FE92F02E0B1D0A22EF5
S1130780B32EC42ED52EE62EF72E082F192F232D87
S113079039894A89522D6B2F7A2F8F2F9E2FB9D0EA
S11307A0A7E0C0D0A22EB32EC42ED52EE62EF72E4F
S11307B0282E392E92C08BED981230C02A2D3B2D55
S11307C04C2D5D2D6E2D7F2D822D932D01E088D033
S11307D0322E398B4A8B252EB62FA72FF82FE92FCF
S11307E002E07ED0A22EB32EC42ED52EE62EF72EF6
S11307F0082F192F232D39894A89522D6B2F7A2FCF
S11308008F2F9E2F86D0A8E08DD0A22EB32EC42E7B
S1130810D52EE62EF72E282E392E5FC09BEB99128B
S113082030C02A2D3B2D4C2D5D2D6E2D7F2D822D1C
S1130830932D01E055D0322E398B4A8B252EB62FBD
S1130840A72FF82FE92F02E04BD0A22EB32EC42EEF
S1130850D52EE62EF72E082F192F232D39894A89F4
S1130860522D6B2F7A2F8F2F9E2F53D0A9E05AD061
S1130870A22EB32EC42ED52EE62EF72E282E392ED8
S11308802CC001E0182D911002C000E010E03F924E
S11308902F92FF92EF92DF92CF92BF92AF925F922C
S11308A04F927F926F924AD0A30161E080E043DCD3
S11308B00FB6F894DEBF0FBECDBF07C0039729F46F
S11308C044EA51E060E080E036DC97E7991285CD98
S11308D01092B9011092B80180CD01E0182DD7CF44
S11308E00F93083090F0982F872F762F652F542F71
S11308F0432F322F22270850F4CF220F331F441FD7
S1130900551F661F771F881F991F0A95B2F70F910D
S113091008952A0D3B1D4C1D5D1D6E1D7F1D801FFE
S1130920911F08950024A7FD00942A0F301D401D37
S1130930501D601D701D801D901D08950F931F9301
S1130940CF93DF93CDB7DEB72E970FB6F894DEBF03
S11309500FBECDBF0D891E8986E08C831A8309835F
S11309608FEF9FE79E838D83AE01475E5F4F6F8954
S1130970788DCE01019610D0EF81F885E00FF11F3C
S113098010822E960FB6F894DEBF0FBECDBFDF9156
S1130990CF911F910F9108952F923F924F925F92A2
S11309A06F927F928F929F92AF92BF92CF92DF927B
S11309B0EF92FF920F931F93CF93DF93CDB7DEB7E0
S11309C02B970FB6F894DEBF0FBECDBF6C017B0131
S11309D08A01FC0117821682838181FFBFC1CE0187
S11309E001963C01F6019381F70193FD859193FFF4
S11309F081917F01882309F4ADC1853239F493FDD7
S1130A00859193FF81917F01853221F4B60190E0B5
S1130A10D6D1E8CF912C212C312CFFE1F315D8F05D
S1130A208B3279F038F4803279F08332A1F4232DBB
S1130A3020611DC08D3261F0803369F4232D216063
S1130A4016C0832D8260382EE32DE4603E2E2AC02A
S1130A50F32DF8601DC037FC2DC020ED280F2A307F
S1130A6040F08E32B9F436FC75C1232D2064322E49
S1130A7019C036FE06C08AE0989E200D1124922EDD
S1130A8011C0EAE02E9E200D1124222EF32DF062D7
S1130A903F2E08C08C3621F4832D8068382E02C086
S1130AA0883641F4F70193FD859193FF81917F018D
S1130AB08111B3CF982F9F7D9554933028F40C5F08
S1130AC01F4F9FE399830DC0833631F0833771F054
S1130AD0833509F055C020C0F801808189830E5FF9
S1130AE01F4F88248394912C530112C02801F2E0F3
S1130AF04F0E511CF801A080B18036FE03C0692D51
S1130B0070E002C06FEF7FEFC5014ED14C0182014E
S1130B10F32DFF773F2E15C0280122E0420E511C11
S1130B20F801A080B18036FE03C0692D70E002C0D8
S1130B306FEF7FEFC5012DD14C01F32DF0683F2EEF
S1130B40820133FC19C0822D90E088169906A0F426
S1130B50B60180E290E033D12A94F5CFF50137FC59
S1130B60859137FE81915F01B60190E028D1211073
S1130B702A9421E0821A91088114910479F7E1C042
S1130B80843611F0893639F5F80137FE07C06081E3
S1130B907181828193810C5F1F4F08C060817181D4
S1130BA0072E000C880B990B0E5F1F4FF32DFF7659
S1130BB03F2E97FF09C090958095709561957F4F62
S1130BC08F4F9F4FF0683F2E2AE030E0A30133D1CE
S1130BD0882E861844C0853731F4232D2F7EB22EFB
S1130BE02AE030E025C0932D997FB92E8F36C1F0CD
S1130BF018F4883579F0AEC0803719F0883721F0C1
S1130C00A9C0E92FE061BE2EB4FE0DC0FB2DF46037
S1130C10BF2E09C034FE0AC0292F2660B22E06C09A
S1130C2028E030E005C020E130E002C020E132E0FD
S1130C30F801B7FE07C060817181828193810C5FE6
S1130C401F4F06C06081718180E090E00E5F1F4FEE
S1130C50A301F1D0882E8618FB2DFF773F2E36FE98
S1130C600DC0232D2E7FA22E891458F434FE0BC000
S1130C7032FC09C0832D8E7EA82E05C0B82CA32C6F
S1130C8003C0B82C01C0B92CA4FE0FC0FE01E80DAE
S1130C90F11D8081803321F49A2D997EA92E09C0FB
S1130CA0A2FE06C0B394B39404C08A2D867809F0DA
S1130CB0B394A3FC10C0A0FE06C0B21480F4280CA8
S1130CC0922C9B180DC0B21458F4B60180E290E047
S1130CD076D0B394F8CFB21418F42B1802C0982C21
S1130CE0212CA4FE0FC0B60180E390E068D0A2FEE0
S1130CF016C0A1FC03C088E790E002C088E590E03C
S1130D00B6010CC08A2D867851F0A1FE02C08BE298
S1130D1001C080E2A7FC8DE2B60190E050D08914B6
S1130D2030F4B60180E390E04AD09A94F8CF8A94E4
S1130D30F301E80DF11D8081B60190E040D08110EF
S1130D40F6CF222009F44ECEB60180E290E037D0EF
S1130D502A94F7CFF6018681978102C08FEF9FEF27
S1130D602B960FB6F894DEBF0FBECDBFDF91CF91A7
S1130D701F910F91FF90EF90DF90CF90BF90AF90B5
S1130D809F908F907F906F905F904F903F902F90A7
S1130D900895FC010590615070400110D8F78095CA
S1130DA090958E0F9F1F0895FC0161507040019033
S1130DB00110D8F7809590958E0F9F1F08950F937B
S1130DC01F93CF93DF93FB01238121FD03C08FEF9A
S1130DD09FEF2CC022FF16C04681578124813581A4
S1130DE04217530744F4A081B1819D012F5F3F4F07
S1130DF0318320838C93268137812F5F3F4F378344
S1130E00268314C08B01EC01FB010084F185E02DE5
S1130E100995892BE1F6D80116968D919C91179727
S1130E20019617969C938E931697CE01DF91CF91DE
S1130E301F910F910895FA01AA27283051F120310A
S1130E4081F1E8946F936E7F6E5F7F4F8F4F9F4F5A
S1130E50AF4FB1E03ED0B4E03CD0670F781F891F9C
S1130E609A1FA11D680F791F8A1F911DA11D6A0F6A
S1130E70711D811D911DA11D20D009F468943F911D
S1130E802AE0269F11243019305D3193DEF6CF011C
S1130E900895462F4770405D4193B3E00FD0C9F7E2
S1130EA0F6CF462F4F70405D4A3318F0495D31FD4F
S1130EB04052419302D0A9F7EACFB4E0A6959795A2
S1130EC0879577956795BA95C9F700976105710578
S1130ED008959B01AC010A2E0694579547953795C2
S1130EE02795BA95C9F7620F731F841F951FA01D1C
S1090EF00895F894FFCF01
S1130EF620202020204D41524B4554002020202004
S1130F062053595354454D002020202020202020D2
S1130F1620200020202020204D41524B45542020E3
S1130F2620202000202020202053595354454D20B2
S1130F362020202000202020253032643A2530321B
S1130F46643A253032642020200020202020574592
S1130F564C434F4D45212020202000313A20436147
S1130F666C63756C6174696F6E202000323A20548C
S1130F766F74616C2053616C657320200043616C4F
S1130F8663756C6174696F6E204D6F646520200013
S1130F96256C6400546F74616C2053616C65732016
S10B0FA64D6F6465202000007A
S9030000FC
